{
  "_format": "hh-sol-artifact-1",
  "contractName": "NFTMarketplace",
  "sourceName": "contracts/NFTMarketplace.sol",
  "abi": [
    {
      "inputs": [],
      "stateMutability": "nonpayable",
      "type": "constructor"
    },
    {
      "anonymous": false,
      "inputs": [
        {
          "indexed": true,
          "internalType": "address",
          "name": "owner",
          "type": "address"
        },
        {
          "indexed": true,
          "internalType": "address",
          "name": "approved",
          "type": "address"
        },
        {
          "indexed": true,
          "internalType": "uint256",
          "name": "tokenId",
          "type": "uint256"
        }
      ],
      "name": "Approval",
      "type": "event"
    },
    {
      "anonymous": false,
      "inputs": [
        {
          "indexed": true,
          "internalType": "address",
          "name": "owner",
          "type": "address"
        },
        {
          "indexed": true,
          "internalType": "address",
          "name": "operator",
          "type": "address"
        },
        {
          "indexed": false,
          "internalType": "bool",
          "name": "approved",
          "type": "bool"
        }
      ],
      "name": "ApprovalForAll",
      "type": "event"
    },
    {
      "inputs": [
        {
          "internalType": "address",
          "name": "to",
          "type": "address"
        },
        {
          "internalType": "uint256",
          "name": "tokenId",
          "type": "uint256"
        }
      ],
      "name": "approve",
      "outputs": [],
      "stateMutability": "nonpayable",
      "type": "function"
    },
    {
      "inputs": [
        {
          "internalType": "uint256",
          "name": "tokenId",
          "type": "uint256"
        }
      ],
      "name": "createMarketSale",
      "outputs": [],
      "stateMutability": "payable",
      "type": "function"
    },
    {
      "inputs": [
        {
          "internalType": "string",
          "name": "tokenURI",
          "type": "string"
        },
        {
          "internalType": "uint256",
          "name": "price",
          "type": "uint256"
        }
      ],
      "name": "createToken",
      "outputs": [
        {
          "internalType": "uint256",
          "name": "",
          "type": "uint256"
        }
      ],
      "stateMutability": "payable",
      "type": "function"
    },
    {
      "anonymous": false,
      "inputs": [
        {
          "indexed": true,
          "internalType": "uint256",
          "name": "tokenId",
          "type": "uint256"
        },
        {
          "indexed": false,
          "internalType": "address",
          "name": "seller",
          "type": "address"
        },
        {
          "indexed": false,
          "internalType": "address",
          "name": "owner",
          "type": "address"
        },
        {
          "indexed": false,
          "internalType": "uint256",
          "name": "price",
          "type": "uint256"
        },
        {
          "indexed": false,
          "internalType": "bool",
          "name": "sold",
          "type": "bool"
        }
      ],
      "name": "MarketItemCreated",
      "type": "event"
    },
    {
      "inputs": [
        {
          "internalType": "uint256",
          "name": "tokenId",
          "type": "uint256"
        },
        {
          "internalType": "uint256",
          "name": "price",
          "type": "uint256"
        }
      ],
      "name": "resellToken",
      "outputs": [],
      "stateMutability": "payable",
      "type": "function"
    },
    {
      "inputs": [
        {
          "internalType": "address",
          "name": "from",
          "type": "address"
        },
        {
          "internalType": "address",
          "name": "to",
          "type": "address"
        },
        {
          "internalType": "uint256",
          "name": "tokenId",
          "type": "uint256"
        }
      ],
      "name": "safeTransferFrom",
      "outputs": [],
      "stateMutability": "nonpayable",
      "type": "function"
    },
    {
      "inputs": [
        {
          "internalType": "address",
          "name": "from",
          "type": "address"
        },
        {
          "internalType": "address",
          "name": "to",
          "type": "address"
        },
        {
          "internalType": "uint256",
          "name": "tokenId",
          "type": "uint256"
        },
        {
          "internalType": "bytes",
          "name": "data",
          "type": "bytes"
        }
      ],
      "name": "safeTransferFrom",
      "outputs": [],
      "stateMutability": "nonpayable",
      "type": "function"
    },
    {
      "inputs": [
        {
          "internalType": "address",
          "name": "operator",
          "type": "address"
        },
        {
          "internalType": "bool",
          "name": "approved",
          "type": "bool"
        }
      ],
      "name": "setApprovalForAll",
      "outputs": [],
      "stateMutability": "nonpayable",
      "type": "function"
    },
    {
      "anonymous": false,
      "inputs": [
        {
          "indexed": true,
          "internalType": "address",
          "name": "from",
          "type": "address"
        },
        {
          "indexed": true,
          "internalType": "address",
          "name": "to",
          "type": "address"
        },
        {
          "indexed": true,
          "internalType": "uint256",
          "name": "tokenId",
          "type": "uint256"
        }
      ],
      "name": "Transfer",
      "type": "event"
    },
    {
      "inputs": [
        {
          "internalType": "address",
          "name": "from",
          "type": "address"
        },
        {
          "internalType": "address",
          "name": "to",
          "type": "address"
        },
        {
          "internalType": "uint256",
          "name": "tokenId",
          "type": "uint256"
        }
      ],
      "name": "transferFrom",
      "outputs": [],
      "stateMutability": "nonpayable",
      "type": "function"
    },
    {
      "inputs": [
        {
          "internalType": "uint256",
          "name": "_listingPrice",
          "type": "uint256"
        }
      ],
      "name": "updateListingPrice",
      "outputs": [],
      "stateMutability": "payable",
      "type": "function"
    },
    {
      "inputs": [
        {
          "internalType": "address",
          "name": "owner",
          "type": "address"
        }
      ],
      "name": "balanceOf",
      "outputs": [
        {
          "internalType": "uint256",
          "name": "",
          "type": "uint256"
        }
      ],
      "stateMutability": "view",
      "type": "function"
    },
    {
      "inputs": [],
      "name": "fetchItemsListed",
      "outputs": [
        {
          "components": [
            {
              "internalType": "uint256",
              "name": "tokenId",
              "type": "uint256"
            },
            {
              "internalType": "address payable",
              "name": "seller",
              "type": "address"
            },
            {
              "internalType": "address payable",
              "name": "owner",
              "type": "address"
            },
            {
              "internalType": "uint256",
              "name": "price",
              "type": "uint256"
            },
            {
              "internalType": "bool",
              "name": "sold",
              "type": "bool"
            }
          ],
          "internalType": "struct NFTMarketplace.MarketItem[]",
          "name": "",
          "type": "tuple[]"
        }
      ],
      "stateMutability": "view",
      "type": "function"
    },
    {
      "inputs": [],
      "name": "fetchMarketItems",
      "outputs": [
        {
          "components": [
            {
              "internalType": "uint256",
              "name": "tokenId",
              "type": "uint256"
            },
            {
              "internalType": "address payable",
              "name": "seller",
              "type": "address"
            },
            {
              "internalType": "address payable",
              "name": "owner",
              "type": "address"
            },
            {
              "internalType": "uint256",
              "name": "price",
              "type": "uint256"
            },
            {
              "internalType": "bool",
              "name": "sold",
              "type": "bool"
            }
          ],
          "internalType": "struct NFTMarketplace.MarketItem[]",
          "name": "",
          "type": "tuple[]"
        }
      ],
      "stateMutability": "view",
      "type": "function"
    },
    {
      "inputs": [],
      "name": "fetchMyNFTs",
      "outputs": [
        {
          "components": [
            {
              "internalType": "uint256",
              "name": "tokenId",
              "type": "uint256"
            },
            {
              "internalType": "address payable",
              "name": "seller",
              "type": "address"
            },
            {
              "internalType": "address payable",
              "name": "owner",
              "type": "address"
            },
            {
              "internalType": "uint256",
              "name": "price",
              "type": "uint256"
            },
            {
              "internalType": "bool",
              "name": "sold",
              "type": "bool"
            }
          ],
          "internalType": "struct NFTMarketplace.MarketItem[]",
          "name": "",
          "type": "tuple[]"
        }
      ],
      "stateMutability": "view",
      "type": "function"
    },
    {
      "inputs": [
        {
          "internalType": "uint256",
          "name": "tokenId",
          "type": "uint256"
        }
      ],
      "name": "getApproved",
      "outputs": [
        {
          "internalType": "address",
          "name": "",
          "type": "address"
        }
      ],
      "stateMutability": "view",
      "type": "function"
    },
    {
      "inputs": [],
      "name": "getListingPrice",
      "outputs": [
        {
          "internalType": "uint256",
          "name": "",
          "type": "uint256"
        }
      ],
      "stateMutability": "view",
      "type": "function"
    },
    {
      "inputs": [
        {
          "internalType": "address",
          "name": "owner",
          "type": "address"
        },
        {
          "internalType": "address",
          "name": "operator",
          "type": "address"
        }
      ],
      "name": "isApprovedForAll",
      "outputs": [
        {
          "internalType": "bool",
          "name": "",
          "type": "bool"
        }
      ],
      "stateMutability": "view",
      "type": "function"
    },
    {
      "inputs": [],
      "name": "name",
      "outputs": [
        {
          "internalType": "string",
          "name": "",
          "type": "string"
        }
      ],
      "stateMutability": "view",
      "type": "function"
    },
    {
      "inputs": [
        {
          "internalType": "uint256",
          "name": "tokenId",
          "type": "uint256"
        }
      ],
      "name": "ownerOf",
      "outputs": [
        {
          "internalType": "address",
          "name": "",
          "type": "address"
        }
      ],
      "stateMutability": "view",
      "type": "function"
    },
    {
      "inputs": [
        {
          "internalType": "bytes4",
          "name": "interfaceId",
          "type": "bytes4"
        }
      ],
      "name": "supportsInterface",
      "outputs": [
        {
          "internalType": "bool",
          "name": "",
          "type": "bool"
        }
      ],
      "stateMutability": "view",
      "type": "function"
    },
    {
      "inputs": [],
      "name": "symbol",
      "outputs": [
        {
          "internalType": "string",
          "name": "",
          "type": "string"
        }
      ],
      "stateMutability": "view",
      "type": "function"
    },
    {
      "inputs": [
        {
          "internalType": "uint256",
          "name": "tokenId",
          "type": "uint256"
        }
      ],
      "name": "tokenURI",
      "outputs": [
        {
          "internalType": "string",
          "name": "",
          "type": "string"
        }
      ],
      "stateMutability": "view",
      "type": "function"
    }
  ],
  "bytecode": "60806040526658d15e176280006009553480156200001c57600080fd5b506040518060400160405280601081526020017f4d657461766572736520546f6b656e73000000000000000000000000000000008152506040518060400160405280600481526020017f4d4554540000000000000000000000000000000000000000000000000000000081525081600090816200009a919062000370565b508060019081620000ac919062000370565b50505033600a60006101000a81548173ffffffffffffffffffffffffffffffffffffffff021916908373ffffffffffffffffffffffffffffffffffffffff16021790555062000457565b600081519050919050565b7f4e487b7100000000000000000000000000000000000000000000000000000000600052604160045260246000fd5b7f4e487b7100000000000000000000000000000000000000000000000000000000600052602260045260246000fd5b600060028204905060018216806200017857607f821691505b6020821081036200018e576200018d62000130565b5b50919050565b60008190508160005260206000209050919050565b60006020601f8301049050919050565b600082821b905092915050565b600060088302620001f87fffffffffffffffffffffffffffffffffffffffffffffffffffffffffffffffff82620001b9565b620002048683620001b9565b95508019841693508086168417925050509392505050565b6000819050919050565b6000819050919050565b6000620002516200024b62000245846200021c565b62000226565b6200021c565b9050919050565b6000819050919050565b6200026d8362000230565b620002856200027c8262000258565b848454620001c6565b825550505050565b600090565b6200029c6200028d565b620002a981848462000262565b505050565b5b81811015620002d157620002c560008262000292565b600181019050620002af565b5050565b601f8211156200032057620002ea8162000194565b620002f584620001a9565b8101602085101562000305578190505b6200031d6200031485620001a9565b830182620002ae565b50505b505050565b600082821c905092915050565b6000620003456000198460080262000325565b1980831691505092915050565b600062000360838362000332565b9150826002028217905092915050565b6200037b82620000f6565b67ffffffffffffffff81111562000397576200039662000101565b5b620003a382546200015f565b620003b0828285620002d5565b600060209050601f831160018114620003e85760008415620003d3578287015190505b620003df858262000352565b8655506200044f565b601f198416620003f88662000194565b60005b828110156200042257848901518255600182019150602085019450602081019050620003fb565b868310156200044257848901516200043e601f89168262000332565b8355505b6001600288020188555050505b505050505050565b61435580620004676000396000f3fe60806040526004361061012a5760003560e01c80636352211e116100ab578063ae677aa31161006f578063ae677aa3146103f9578063b88d4fde14610415578063be9af5361461043e578063c87b56dd1461045a578063e219fc7514610497578063e985e9c5146104b35761012a565b80636352211e146102fb57806370a082311461033857806372b3b6201461037557806395d89b41146103a5578063a22cb465146103d05761012a565b806312e85585116100f257806312e8558514610228578063202e37401461025357806323b872dd1461027e57806342842e0e146102a757806345f8fa80146102d05761012a565b806301ffc9a71461012f57806306fdde031461016c578063081812fc14610197578063095ea7b3146101d45780630f08efe0146101fd575b600080fd5b34801561013b57600080fd5b5061015660048036038101906101519190612b87565b6104f0565b6040516101639190612bcf565b60405180910390f35b34801561017857600080fd5b506101816105d2565b60405161018e9190612c7a565b60405180910390f35b3480156101a357600080fd5b506101be60048036038101906101b99190612cd2565b610664565b6040516101cb9190612d40565b60405180910390f35b3480156101e057600080fd5b506101fb60048036038101906101f69190612d87565b6106aa565b005b34801561020957600080fd5b506102126107c1565b60405161021f9190612f1d565b60405180910390f35b34801561023457600080fd5b5061023d610a29565b60405161024a9190612f4e565b60405180910390f35b34801561025f57600080fd5b50610268610a33565b6040516102759190612f1d565b60405180910390f35b34801561028a57600080fd5b506102a560048036038101906102a09190612f69565b610d1f565b005b3480156102b357600080fd5b506102ce60048036038101906102c99190612f69565b610d7f565b005b3480156102dc57600080fd5b506102e5610d9f565b6040516102f29190612f1d565b60405180910390f35b34801561030757600080fd5b50610322600480360381019061031d9190612cd2565b61108b565b60405161032f9190612d40565b60405180910390f35b34801561034457600080fd5b5061035f600480360381019061035a9190612fbc565b611111565b60405161036c9190612f4e565b60405180910390f35b61038f600480360381019061038a919061311e565b6111c8565b60405161039c9190612f4e565b60405180910390f35b3480156103b157600080fd5b506103ba61120a565b6040516103c79190612c7a565b60405180910390f35b3480156103dc57600080fd5b506103f760048036038101906103f291906131a6565b61129c565b005b610413600480360381019061040e9190612cd2565b6112b2565b005b34801561042157600080fd5b5061043c60048036038101906104379190613287565b6113dc565b005b61045860048036038101906104539190612cd2565b61143e565b005b34801561046657600080fd5b50610481600480360381019061047c9190612cd2565b611676565b60405161048e9190612c7a565b60405180910390f35b6104b160048036038101906104ac919061330a565b611788565b005b3480156104bf57600080fd5b506104da60048036038101906104d5919061334a565b61197d565b6040516104e79190612bcf565b60405180910390f35b60007f80ac58cd000000000000000000000000000000000000000000000000000000007bffffffffffffffffffffffffffffffffffffffffffffffffffffffff1916827bffffffffffffffffffffffffffffffffffffffffffffffffffffffff191614806105bb57507f5b5e139f000000000000000000000000000000000000000000000000000000007bffffffffffffffffffffffffffffffffffffffffffffffffffffffff1916827bffffffffffffffffffffffffffffffffffffffffffffffffffffffff1916145b806105cb57506105ca82611a11565b5b9050919050565b6060600080546105e1906133b9565b80601f016020809104026020016040519081016040528092919081815260200182805461060d906133b9565b801561065a5780601f1061062f5761010080835404028352916020019161065a565b820191906000526020600020905b81548152906001019060200180831161063d57829003601f168201915b5050505050905090565b600061066f82611a7b565b6004600083815260200190815260200160002060009054906101000a900473ffffffffffffffffffffffffffffffffffffffff169050919050565b60006106b58261108b565b90508073ffffffffffffffffffffffffffffffffffffffff168373ffffffffffffffffffffffffffffffffffffffff1603610725576040517f08c379a000000000000000000000000000000000000000000000000000000000815260040161071c9061345c565b60405180910390fd5b8073ffffffffffffffffffffffffffffffffffffffff16610744611ac6565b73ffffffffffffffffffffffffffffffffffffffff16148061077357506107728161076d611ac6565b61197d565b5b6107b2576040517f08c379a00000000000000000000000000000000000000000000000000000000081526004016107a9906134ee565b60405180910390fd5b6107bc8383611ace565b505050565b606060006107cf6007611b87565b905060006107dd6008611b87565b6107e76007611b87565b6107f1919061353d565b90506000808267ffffffffffffffff8111156108105761080f612ff3565b5b60405190808252806020026020018201604052801561084957816020015b610836612abe565b81526020019060019003908161082e5790505b50905060005b84811015610a1e573073ffffffffffffffffffffffffffffffffffffffff16600b600060018461087f9190613571565b815260200190815260200160002060020160009054906101000a900473ffffffffffffffffffffffffffffffffffffffff1673ffffffffffffffffffffffffffffffffffffffff1603610a0b5760006001826108db9190613571565b90506000600b60008381526020019081526020016000209050806040518060a0016040529081600082015481526020016001820160009054906101000a900473ffffffffffffffffffffffffffffffffffffffff1673ffffffffffffffffffffffffffffffffffffffff1673ffffffffffffffffffffffffffffffffffffffff1681526020016002820160009054906101000a900473ffffffffffffffffffffffffffffffffffffffff1673ffffffffffffffffffffffffffffffffffffffff1673ffffffffffffffffffffffffffffffffffffffff168152602001600382015481526020016004820160009054906101000a900460ff1615151515815250508486815181106109ee576109ed6135a5565b5b6020026020010181905250600185610a069190613571565b945050505b8080610a16906135d4565b91505061084f565b508094505050505090565b6000600954905090565b60606000610a416007611b87565b905060008060005b83811015610ae9573373ffffffffffffffffffffffffffffffffffffffff16600b6000600184610a799190613571565b815260200190815260200160002060020160009054906101000a900473ffffffffffffffffffffffffffffffffffffffff1673ffffffffffffffffffffffffffffffffffffffff1603610ad657600183610ad39190613571565b92505b8080610ae1906135d4565b915050610a49565b5060008267ffffffffffffffff811115610b0657610b05612ff3565b5b604051908082528060200260200182016040528015610b3f57816020015b610b2c612abe565b815260200190600190039081610b245790505b50905060005b84811015610d14573373ffffffffffffffffffffffffffffffffffffffff16600b6000600184610b759190613571565b815260200190815260200160002060020160009054906101000a900473ffffffffffffffffffffffffffffffffffffffff1673ffffffffffffffffffffffffffffffffffffffff1603610d01576000600182610bd19190613571565b90506000600b60008381526020019081526020016000209050806040518060a0016040529081600082015481526020016001820160009054906101000a900473ffffffffffffffffffffffffffffffffffffffff1673ffffffffffffffffffffffffffffffffffffffff1673ffffffffffffffffffffffffffffffffffffffff1681526020016002820160009054906101000a900473ffffffffffffffffffffffffffffffffffffffff1673ffffffffffffffffffffffffffffffffffffffff1673ffffffffffffffffffffffffffffffffffffffff168152602001600382015481526020016004820160009054906101000a900460ff161515151581525050848681518110610ce457610ce36135a5565b5b6020026020010181905250600185610cfc9190613571565b945050505b8080610d0c906135d4565b915050610b45565b508094505050505090565b610d30610d2a611ac6565b82611b95565b610d6f576040517f08c379a0000000000000000000000000000000000000000000000000000000008152600401610d669061368e565b60405180910390fd5b610d7a838383611c2a565b505050565b610d9a838383604051806020016040528060008152506113dc565b505050565b60606000610dad6007611b87565b905060008060005b83811015610e55573373ffffffffffffffffffffffffffffffffffffffff16600b6000600184610de59190613571565b815260200190815260200160002060010160009054906101000a900473ffffffffffffffffffffffffffffffffffffffff1673ffffffffffffffffffffffffffffffffffffffff1603610e4257600183610e3f9190613571565b92505b8080610e4d906135d4565b915050610db5565b5060008267ffffffffffffffff811115610e7257610e71612ff3565b5b604051908082528060200260200182016040528015610eab57816020015b610e98612abe565b815260200190600190039081610e905790505b50905060005b84811015611080573373ffffffffffffffffffffffffffffffffffffffff16600b6000600184610ee19190613571565b815260200190815260200160002060010160009054906101000a900473ffffffffffffffffffffffffffffffffffffffff1673ffffffffffffffffffffffffffffffffffffffff160361106d576000600182610f3d9190613571565b90506000600b60008381526020019081526020016000209050806040518060a0016040529081600082015481526020016001820160009054906101000a900473ffffffffffffffffffffffffffffffffffffffff1673ffffffffffffffffffffffffffffffffffffffff1673ffffffffffffffffffffffffffffffffffffffff1681526020016002820160009054906101000a900473ffffffffffffffffffffffffffffffffffffffff1673ffffffffffffffffffffffffffffffffffffffff1673ffffffffffffffffffffffffffffffffffffffff168152602001600382015481526020016004820160009054906101000a900460ff1615151515815250508486815181106110505761104f6135a5565b5b60200260200101819052506001856110689190613571565b945050505b8080611078906135d4565b915050610eb1565b508094505050505090565b60008061109783611f23565b9050600073ffffffffffffffffffffffffffffffffffffffff168173ffffffffffffffffffffffffffffffffffffffff1603611108576040517f08c379a00000000000000000000000000000000000000000000000000000000081526004016110ff906136fa565b60405180910390fd5b80915050919050565b60008073ffffffffffffffffffffffffffffffffffffffff168273ffffffffffffffffffffffffffffffffffffffff1603611181576040517f08c379a00000000000000000000000000000000000000000000000000000000081526004016111789061378c565b60405180910390fd5b600360008373ffffffffffffffffffffffffffffffffffffffff1673ffffffffffffffffffffffffffffffffffffffff168152602001908152602001600020549050919050565b60006111d46007611f60565b60006111e06007611b87565b90506111ec3382611f76565b6111f68185612193565b6112008184612200565b8091505092915050565b606060018054611219906133b9565b80601f0160208091040260200160405190810160405280929190818152602001828054611245906133b9565b80156112925780601f1061126757610100808354040283529160200191611292565b820191906000526020600020905b81548152906001019060200180831161127557829003601f168201915b5050505050905090565b6112ae6112a7611ac6565b8383612403565b5050565b600a60009054906101000a900473ffffffffffffffffffffffffffffffffffffffff1673ffffffffffffffffffffffffffffffffffffffff163373ffffffffffffffffffffffffffffffffffffffff1614611342576040517f08c379a00000000000000000000000000000000000000000000000000000000081526004016113399061381e565b60405180910390fd5b3373ffffffffffffffffffffffffffffffffffffffff16600a60009054906101000a900473ffffffffffffffffffffffffffffffffffffffff1673ffffffffffffffffffffffffffffffffffffffff16146113d2576040517f08c379a00000000000000000000000000000000000000000000000000000000081526004016113c9906138b0565b60405180910390fd5b8060098190555050565b6113ed6113e7611ac6565b83611b95565b61142c576040517f08c379a00000000000000000000000000000000000000000000000000000000081526004016114239061368e565b60405180910390fd5b6114388484848461256f565b50505050565b6000600b600083815260200190815260200160002060030154905080341461149b576040517f08c379a000000000000000000000000000000000000000000000000000000000815260040161149290613942565b60405180910390fd5b33600b600084815260200190815260200160002060020160006101000a81548173ffffffffffffffffffffffffffffffffffffffff021916908373ffffffffffffffffffffffffffffffffffffffff1602179055506001600b600084815260200190815260200160002060040160006101000a81548160ff0219169083151502179055506000600b600084815260200190815260200160002060010160006101000a81548173ffffffffffffffffffffffffffffffffffffffff021916908373ffffffffffffffffffffffffffffffffffffffff16021790555061157f6008611f60565b61158a303384611c2a565b600a60009054906101000a900473ffffffffffffffffffffffffffffffffffffffff1673ffffffffffffffffffffffffffffffffffffffff166108fc6009549081150290604051600060405180830381858888f193505050501580156115f4573d6000803e3d6000fd5b50600b600083815260200190815260200160002060010160009054906101000a900473ffffffffffffffffffffffffffffffffffffffff1673ffffffffffffffffffffffffffffffffffffffff166108fc349081150290604051600060405180830381858888f19350505050158015611671573d6000803e3d6000fd5b505050565b606061168182611a7b565b60006006600084815260200190815260200160002080546116a1906133b9565b80601f01602080910402602001604051908101604052809291908181526020018280546116cd906133b9565b801561171a5780601f106116ef5761010080835404028352916020019161171a565b820191906000526020600020905b8154815290600101906020018083116116fd57829003601f168201915b50505050509050600061172b6125cb565b90506000815103611740578192505050611783565b60008251111561177557808260405160200161175d92919061399e565b60405160208183030381529060405292505050611783565b61177e846125e2565b925050505b919050565b3373ffffffffffffffffffffffffffffffffffffffff16600b600084815260200190815260200160002060020160009054906101000a900473ffffffffffffffffffffffffffffffffffffffff1673ffffffffffffffffffffffffffffffffffffffff161461182c576040517f08c379a000000000000000000000000000000000000000000000000000000000815260040161182390613a34565b60405180910390fd5b6009543414611870576040517f08c379a000000000000000000000000000000000000000000000000000000000815260040161186790613ac6565b60405180910390fd5b6000600b600084815260200190815260200160002060040160006101000a81548160ff02191690831515021790555080600b60008481526020019081526020016000206003018190555033600b600084815260200190815260200160002060010160006101000a81548173ffffffffffffffffffffffffffffffffffffffff021916908373ffffffffffffffffffffffffffffffffffffffff16021790555030600b600084815260200190815260200160002060020160006101000a81548173ffffffffffffffffffffffffffffffffffffffff021916908373ffffffffffffffffffffffffffffffffffffffff16021790555061196e600861264a565b611979333084611c2a565b5050565b6000600560008473ffffffffffffffffffffffffffffffffffffffff1673ffffffffffffffffffffffffffffffffffffffff16815260200190815260200160002060008373ffffffffffffffffffffffffffffffffffffffff1673ffffffffffffffffffffffffffffffffffffffff16815260200190815260200160002060009054906101000a900460ff16905092915050565b60007f01ffc9a7000000000000000000000000000000000000000000000000000000007bffffffffffffffffffffffffffffffffffffffffffffffffffffffff1916827bffffffffffffffffffffffffffffffffffffffffffffffffffffffff1916149050919050565b611a84816126a6565b611ac3576040517f08c379a0000000000000000000000000000000000000000000000000000000008152600401611aba906136fa565b60405180910390fd5b50565b600033905090565b816004600083815260200190815260200160002060006101000a81548173ffffffffffffffffffffffffffffffffffffffff021916908373ffffffffffffffffffffffffffffffffffffffff160217905550808273ffffffffffffffffffffffffffffffffffffffff16611b418361108b565b73ffffffffffffffffffffffffffffffffffffffff167f8c5be1e5ebec7d5bd14f71427d1e84f3dd0314c0f7b2291e5b200ac8c7c3b92560405160405180910390a45050565b600081600001549050919050565b600080611ba18361108b565b90508073ffffffffffffffffffffffffffffffffffffffff168473ffffffffffffffffffffffffffffffffffffffff161480611be35750611be2818561197d565b5b80611c2157508373ffffffffffffffffffffffffffffffffffffffff16611c0984610664565b73ffffffffffffffffffffffffffffffffffffffff16145b91505092915050565b8273ffffffffffffffffffffffffffffffffffffffff16611c4a8261108b565b73ffffffffffffffffffffffffffffffffffffffff1614611ca0576040517f08c379a0000000000000000000000000000000000000000000000000000000008152600401611c9790613b58565b60405180910390fd5b600073ffffffffffffffffffffffffffffffffffffffff168273ffffffffffffffffffffffffffffffffffffffff1603611d0f576040517f08c379a0000000000000000000000000000000000000000000000000000000008152600401611d0690613bea565b60405180910390fd5b611d1c83838360016126e7565b8273ffffffffffffffffffffffffffffffffffffffff16611d3c8261108b565b73ffffffffffffffffffffffffffffffffffffffff1614611d92576040517f08c379a0000000000000000000000000000000000000000000000000000000008152600401611d8990613b58565b60405180910390fd5b6004600082815260200190815260200160002060006101000a81549073ffffffffffffffffffffffffffffffffffffffff02191690556001600360008573ffffffffffffffffffffffffffffffffffffffff1673ffffffffffffffffffffffffffffffffffffffff168152602001908152602001600020600082825403925050819055506001600360008473ffffffffffffffffffffffffffffffffffffffff1673ffffffffffffffffffffffffffffffffffffffff16815260200190815260200160002060008282540192505081905550816002600083815260200190815260200160002060006101000a81548173ffffffffffffffffffffffffffffffffffffffff021916908373ffffffffffffffffffffffffffffffffffffffff160217905550808273ffffffffffffffffffffffffffffffffffffffff168473ffffffffffffffffffffffffffffffffffffffff167fddf252ad1be2c89b69c2b068fc378daa952ba7f163c4a11628f55a4df523b3ef60405160405180910390a4611f1e83838360016126ed565b505050565b60006002600083815260200190815260200160002060009054906101000a900473ffffffffffffffffffffffffffffffffffffffff169050919050565b6001816000016000828254019250508190555050565b600073ffffffffffffffffffffffffffffffffffffffff168273ffffffffffffffffffffffffffffffffffffffff1603611fe5576040517f08c379a0000000000000000000000000000000000000000000000000000000008152600401611fdc90613c56565b60405180910390fd5b611fee816126a6565b1561202e576040517f08c379a000000000000000000000000000000000000000000000000000000000815260040161202590613cc2565b60405180910390fd5b61203c6000838360016126e7565b612045816126a6565b15612085576040517f08c379a000000000000000000000000000000000000000000000000000000000815260040161207c90613cc2565b60405180910390fd5b6001600360008473ffffffffffffffffffffffffffffffffffffffff1673ffffffffffffffffffffffffffffffffffffffff16815260200190815260200160002060008282540192505081905550816002600083815260200190815260200160002060006101000a81548173ffffffffffffffffffffffffffffffffffffffff021916908373ffffffffffffffffffffffffffffffffffffffff160217905550808273ffffffffffffffffffffffffffffffffffffffff16600073ffffffffffffffffffffffffffffffffffffffff167fddf252ad1be2c89b69c2b068fc378daa952ba7f163c4a11628f55a4df523b3ef60405160405180910390a461218f6000838360016126ed565b5050565b61219c826126a6565b6121db576040517f08c379a00000000000000000000000000000000000000000000000000000000081526004016121d290613d54565b60405180910390fd5b806006600084815260200190815260200160002090816121fb9190613f20565b505050565b60008111612243576040517f08c379a000000000000000000000000000000000000000000000000000000000815260040161223a9061403e565b60405180910390fd5b6009543414612287576040517f08c379a000000000000000000000000000000000000000000000000000000000815260040161227e90613ac6565b60405180910390fd5b6040518060a001604052808381526020013373ffffffffffffffffffffffffffffffffffffffff1681526020013073ffffffffffffffffffffffffffffffffffffffff16815260200182815260200160001515815250600b60008481526020019081526020016000206000820151816000015560208201518160010160006101000a81548173ffffffffffffffffffffffffffffffffffffffff021916908373ffffffffffffffffffffffffffffffffffffffff16021790555060408201518160020160006101000a81548173ffffffffffffffffffffffffffffffffffffffff021916908373ffffffffffffffffffffffffffffffffffffffff1602179055506060820151816003015560808201518160040160006101000a81548160ff0219169083151502179055509050506123c0333084611c2a565b817fb640004f1d14576d0c209e240cad0410e0d8c0c33a09375861fbadae2588a98d33308460006040516123f7949392919061405e565b60405180910390a25050565b8173ffffffffffffffffffffffffffffffffffffffff168373ffffffffffffffffffffffffffffffffffffffff1603612471576040517f08c379a0000000000000000000000000000000000000000000000000000000008152600401612468906140ef565b60405180910390fd5b80600560008573ffffffffffffffffffffffffffffffffffffffff1673ffffffffffffffffffffffffffffffffffffffff16815260200190815260200160002060008473ffffffffffffffffffffffffffffffffffffffff1673ffffffffffffffffffffffffffffffffffffffff16815260200190815260200160002060006101000a81548160ff0219169083151502179055508173ffffffffffffffffffffffffffffffffffffffff168373ffffffffffffffffffffffffffffffffffffffff167f17307eab39ab6107e8899845ad3d59bd9653f200f220920489ca2b5937696c31836040516125629190612bcf565b60405180910390a3505050565b61257a848484611c2a565b612586848484846126f3565b6125c5576040517f08c379a00000000000000000000000000000000000000000000000000000000081526004016125bc90614181565b60405180910390fd5b50505050565b606060405180602001604052806000815250905090565b60606125ed82611a7b565b60006125f76125cb565b905060008151116126175760405180602001604052806000815250612642565b806126218461287a565b60405160200161263292919061399e565b6040516020818303038152906040525b915050919050565b60008160000154905060008111612696576040517f08c379a000000000000000000000000000000000000000000000000000000000815260040161268d906141ed565b60405180910390fd5b6001810382600001819055505050565b60008073ffffffffffffffffffffffffffffffffffffffff166126c883611f23565b73ffffffffffffffffffffffffffffffffffffffff1614159050919050565b50505050565b50505050565b60006127148473ffffffffffffffffffffffffffffffffffffffff16612948565b1561286d578373ffffffffffffffffffffffffffffffffffffffff1663150b7a0261273d611ac6565b8786866040518563ffffffff1660e01b815260040161275f9493929190614262565b6020604051808303816000875af192505050801561279b57506040513d601f19601f8201168201806040525081019061279891906142c3565b60015b61281d573d80600081146127cb576040519150601f19603f3d011682016040523d82523d6000602084013e6127d0565b606091505b506000815103612815576040517f08c379a000000000000000000000000000000000000000000000000000000000815260040161280c90614181565b60405180910390fd5b805181602001fd5b63150b7a0260e01b7bffffffffffffffffffffffffffffffffffffffffffffffffffffffff1916817bffffffffffffffffffffffffffffffffffffffffffffffffffffffff191614915050612872565b600190505b949350505050565b6060600060016128898461296b565b01905060008167ffffffffffffffff8111156128a8576128a7612ff3565b5b6040519080825280601f01601f1916602001820160405280156128da5781602001600182028036833780820191505090505b509050600082602001820190505b60011561293d578080600190039150507f3031323334353637383961626364656600000000000000000000000000000000600a86061a8153600a8581612931576129306142f0565b5b049450600085036128e8575b819350505050919050565b6000808273ffffffffffffffffffffffffffffffffffffffff163b119050919050565b600080600090507a184f03e93ff9f4daa797ed6e38ed64bf6a1f01000000000000000083106129c9577a184f03e93ff9f4daa797ed6e38ed64bf6a1f01000000000000000083816129bf576129be6142f0565b5b0492506040810190505b6d04ee2d6d415b85acef81000000008310612a06576d04ee2d6d415b85acef810000000083816129fc576129fb6142f0565b5b0492506020810190505b662386f26fc100008310612a3557662386f26fc100008381612a2b57612a2a6142f0565b5b0492506010810190505b6305f5e1008310612a5e576305f5e1008381612a5457612a536142f0565b5b0492506008810190505b6127108310612a83576127108381612a7957612a786142f0565b5b0492506004810190505b60648310612aa65760648381612a9c57612a9b6142f0565b5b0492506002810190505b600a8310612ab5576001810190505b80915050919050565b6040518060a0016040528060008152602001600073ffffffffffffffffffffffffffffffffffffffff168152602001600073ffffffffffffffffffffffffffffffffffffffff168152602001600081526020016000151581525090565b6000604051905090565b600080fd5b600080fd5b60007fffffffff0000000000000000000000000000000000000000000000000000000082169050919050565b612b6481612b2f565b8114612b6f57600080fd5b50565b600081359050612b8181612b5b565b92915050565b600060208284031215612b9d57612b9c612b25565b5b6000612bab84828501612b72565b91505092915050565b60008115159050919050565b612bc981612bb4565b82525050565b6000602082019050612be46000830184612bc0565b92915050565b600081519050919050565b600082825260208201905092915050565b60005b83811015612c24578082015181840152602081019050612c09565b60008484015250505050565b6000601f19601f8301169050919050565b6000612c4c82612bea565b612c568185612bf5565b9350612c66818560208601612c06565b612c6f81612c30565b840191505092915050565b60006020820190508181036000830152612c948184612c41565b905092915050565b6000819050919050565b612caf81612c9c565b8114612cba57600080fd5b50565b600081359050612ccc81612ca6565b92915050565b600060208284031215612ce857612ce7612b25565b5b6000612cf684828501612cbd565b91505092915050565b600073ffffffffffffffffffffffffffffffffffffffff82169050919050565b6000612d2a82612cff565b9050919050565b612d3a81612d1f565b82525050565b6000602082019050612d556000830184612d31565b92915050565b612d6481612d1f565b8114612d6f57600080fd5b50565b600081359050612d8181612d5b565b92915050565b60008060408385031215612d9e57612d9d612b25565b5b6000612dac85828601612d72565b9250506020612dbd85828601612cbd565b9150509250929050565b600081519050919050565b600082825260208201905092915050565b6000819050602082019050919050565b612dfc81612c9c565b82525050565b6000612e0d82612cff565b9050919050565b612e1d81612e02565b82525050565b612e2c81612bb4565b82525050565b60a082016000820151612e486000850182612df3565b506020820151612e5b6020850182612e14565b506040820151612e6e6040850182612e14565b506060820151612e816060850182612df3565b506080820151612e946080850182612e23565b50505050565b6000612ea68383612e32565b60a08301905092915050565b6000602082019050919050565b6000612eca82612dc7565b612ed48185612dd2565b9350612edf83612de3565b8060005b83811015612f10578151612ef78882612e9a565b9750612f0283612eb2565b925050600181019050612ee3565b5085935050505092915050565b60006020820190508181036000830152612f378184612ebf565b905092915050565b612f4881612c9c565b82525050565b6000602082019050612f636000830184612f3f565b92915050565b600080600060608486031215612f8257612f81612b25565b5b6000612f9086828701612d72565b9350506020612fa186828701612d72565b9250506040612fb286828701612cbd565b9150509250925092565b600060208284031215612fd257612fd1612b25565b5b6000612fe084828501612d72565b91505092915050565b600080fd5b600080fd5b7f4e487b7100000000000000000000000000000000000000000000000000000000600052604160045260246000fd5b61302b82612c30565b810181811067ffffffffffffffff8211171561304a57613049612ff3565b5b80604052505050565b600061305d612b1b565b90506130698282613022565b919050565b600067ffffffffffffffff82111561308957613088612ff3565b5b61309282612c30565b9050602081019050919050565b82818337600083830152505050565b60006130c16130bc8461306e565b613053565b9050828152602081018484840111156130dd576130dc612fee565b5b6130e884828561309f565b509392505050565b600082601f83011261310557613104612fe9565b5b81356131158482602086016130ae565b91505092915050565b6000806040838503121561313557613134612b25565b5b600083013567ffffffffffffffff81111561315357613152612b2a565b5b61315f858286016130f0565b925050602061317085828601612cbd565b9150509250929050565b61318381612bb4565b811461318e57600080fd5b50565b6000813590506131a08161317a565b92915050565b600080604083850312156131bd576131bc612b25565b5b60006131cb85828601612d72565b92505060206131dc85828601613191565b9150509250929050565b600067ffffffffffffffff82111561320157613200612ff3565b5b61320a82612c30565b9050602081019050919050565b600061322a613225846131e6565b613053565b90508281526020810184848401111561324657613245612fee565b5b61325184828561309f565b509392505050565b600082601f83011261326e5761326d612fe9565b5b813561327e848260208601613217565b91505092915050565b600080600080608085870312156132a1576132a0612b25565b5b60006132af87828801612d72565b94505060206132c087828801612d72565b93505060406132d187828801612cbd565b925050606085013567ffffffffffffffff8111156132f2576132f1612b2a565b5b6132fe87828801613259565b91505092959194509250565b6000806040838503121561332157613320612b25565b5b600061332f85828601612cbd565b925050602061334085828601612cbd565b9150509250929050565b6000806040838503121561336157613360612b25565b5b600061336f85828601612d72565b925050602061338085828601612d72565b9150509250929050565b7f4e487b7100000000000000000000000000000000000000000000000000000000600052602260045260246000fd5b600060028204905060018216806133d157607f821691505b6020821081036133e4576133e361338a565b5b50919050565b7f4552433732313a20617070726f76616c20746f2063757272656e74206f776e6560008201527f7200000000000000000000000000000000000000000000000000000000000000602082015250565b6000613446602183612bf5565b9150613451826133ea565b604082019050919050565b6000602082019050818103600083015261347581613439565b9050919050565b7f4552433732313a20617070726f76652063616c6c6572206973206e6f7420746f60008201527f6b656e206f776e6572206f7220617070726f76656420666f7220616c6c000000602082015250565b60006134d8603d83612bf5565b91506134e38261347c565b604082019050919050565b60006020820190508181036000830152613507816134cb565b9050919050565b7f4e487b7100000000000000000000000000000000000000000000000000000000600052601160045260246000fd5b600061354882612c9c565b915061355383612c9c565b925082820390508181111561356b5761356a61350e565b5b92915050565b600061357c82612c9c565b915061358783612c9c565b925082820190508082111561359f5761359e61350e565b5b92915050565b7f4e487b7100000000000000000000000000000000000000000000000000000000600052603260045260246000fd5b60006135df82612c9c565b91507fffffffffffffffffffffffffffffffffffffffffffffffffffffffffffffffff82036136115761361061350e565b5b600182019050919050565b7f4552433732313a2063616c6c6572206973206e6f7420746f6b656e206f776e6560008201527f72206f7220617070726f76656400000000000000000000000000000000000000602082015250565b6000613678602d83612bf5565b91506136838261361c565b604082019050919050565b600060208201905081810360008301526136a78161366b565b9050919050565b7f4552433732313a20696e76616c696420746f6b656e2049440000000000000000600082015250565b60006136e4601883612bf5565b91506136ef826136ae565b602082019050919050565b60006020820190508181036000830152613713816136d7565b9050919050565b7f4552433732313a2061646472657373207a65726f206973206e6f74206120766160008201527f6c6964206f776e65720000000000000000000000000000000000000000000000602082015250565b6000613776602983612bf5565b91506137818261371a565b604082019050919050565b600060208201905081810360008301526137a581613769565b9050919050565b7f6f6e6c79206f776e6572206f6620746865206d61726b6574706c61636520636160008201527f6e206368616e676520746865206c697374696e67207072696365000000000000602082015250565b6000613808603a83612bf5565b9150613813826137ac565b604082019050919050565b60006020820190508181036000830152613837816137fb565b9050919050565b7f4f6e6c79206d61726b6574706c616365206f776e65722063616e20757064617460008201527f65206c697374696e672070726963652e00000000000000000000000000000000602082015250565b600061389a603083612bf5565b91506138a58261383e565b604082019050919050565b600060208201905081810360008301526138c98161388d565b9050919050565b7f506c65617365207375626d6974207468652061736b696e67207072696365206960008201527f6e206f7264657220746f20636f6d706c65746520746865207075726368617365602082015250565b600061392c604083612bf5565b9150613937826138d0565b604082019050919050565b6000602082019050818103600083015261395b8161391f565b9050919050565b600081905092915050565b600061397882612bea565b6139828185613962565b9350613992818560208601612c06565b80840191505092915050565b60006139aa828561396d565b91506139b6828461396d565b91508190509392505050565b7f4f6e6c79206974656d206f776e65722063616e20706572666f726d207468697360008201527f206f7065726174696f6e00000000000000000000000000000000000000000000602082015250565b6000613a1e602a83612bf5565b9150613a29826139c2565b604082019050919050565b60006020820190508181036000830152613a4d81613a11565b9050919050565b7f5072696365206d75737420626520657175616c20746f206c697374696e67207060008201527f7269636500000000000000000000000000000000000000000000000000000000602082015250565b6000613ab0602483612bf5565b9150613abb82613a54565b604082019050919050565b60006020820190508181036000830152613adf81613aa3565b9050919050565b7f4552433732313a207472616e736665722066726f6d20696e636f72726563742060008201527f6f776e6572000000000000000000000000000000000000000000000000000000602082015250565b6000613b42602583612bf5565b9150613b4d82613ae6565b604082019050919050565b60006020820190508181036000830152613b7181613b35565b9050919050565b7f4552433732313a207472616e7366657220746f20746865207a65726f2061646460008201527f7265737300000000000000000000000000000000000000000000000000000000602082015250565b6000613bd4602483612bf5565b9150613bdf82613b78565b604082019050919050565b60006020820190508181036000830152613c0381613bc7565b9050919050565b7f4552433732313a206d696e7420746f20746865207a65726f2061646472657373600082015250565b6000613c40602083612bf5565b9150613c4b82613c0a565b602082019050919050565b60006020820190508181036000830152613c6f81613c33565b9050919050565b7f4552433732313a20746f6b656e20616c7265616479206d696e74656400000000600082015250565b6000613cac601c83612bf5565b9150613cb782613c76565b602082019050919050565b60006020820190508181036000830152613cdb81613c9f565b9050919050565b7f45524337323155524953746f726167653a2055524920736574206f66206e6f6e60008201527f6578697374656e7420746f6b656e000000000000000000000000000000000000602082015250565b6000613d3e602e83612bf5565b9150613d4982613ce2565b604082019050919050565b60006020820190508181036000830152613d6d81613d31565b9050919050565b60008190508160005260206000209050919050565b60006020601f8301049050919050565b600082821b905092915050565b600060088302613dd67fffffffffffffffffffffffffffffffffffffffffffffffffffffffffffffffff82613d99565b613de08683613d99565b95508019841693508086168417925050509392505050565b6000819050919050565b6000613e1d613e18613e1384612c9c565b613df8565b612c9c565b9050919050565b6000819050919050565b613e3783613e02565b613e4b613e4382613e24565b848454613da6565b825550505050565b600090565b613e60613e53565b613e6b818484613e2e565b505050565b5b81811015613e8f57613e84600082613e58565b600181019050613e71565b5050565b601f821115613ed457613ea581613d74565b613eae84613d89565b81016020851015613ebd578190505b613ed1613ec985613d89565b830182613e70565b50505b505050565b600082821c905092915050565b6000613ef760001984600802613ed9565b1980831691505092915050565b6000613f108383613ee6565b9150826002028217905092915050565b613f2982612bea565b67ffffffffffffffff811115613f4257613f41612ff3565b5b613f4c82546133b9565b613f57828285613e93565b600060209050601f831160018114613f8a5760008415613f78578287015190505b613f828582613f04565b865550613fea565b601f198416613f9886613d74565b60005b82811015613fc057848901518255600182019150602085019450602081019050613f9b565b86831015613fdd5784890151613fd9601f891682613ee6565b8355505b6001600288020188555050505b505050505050565b7f5072696365206d757374206265206174206c6561737420312077656900000000600082015250565b6000614028601c83612bf5565b915061403382613ff2565b602082019050919050565b600060208201905081810360008301526140578161401b565b9050919050565b60006080820190506140736000830187612d31565b6140806020830186612d31565b61408d6040830185612f3f565b61409a6060830184612bc0565b95945050505050565b7f4552433732313a20617070726f766520746f2063616c6c657200000000000000600082015250565b60006140d9601983612bf5565b91506140e4826140a3565b602082019050919050565b60006020820190508181036000830152614108816140cc565b9050919050565b7f4552433732313a207472616e7366657220746f206e6f6e20455243373231526560008201527f63656976657220696d706c656d656e7465720000000000000000000000000000602082015250565b600061416b603283612bf5565b91506141768261410f565b604082019050919050565b6000602082019050818103600083015261419a8161415e565b9050919050565b7f436f756e7465723a2064656372656d656e74206f766572666c6f770000000000600082015250565b60006141d7601b83612bf5565b91506141e2826141a1565b602082019050919050565b60006020820190508181036000830152614206816141ca565b9050919050565b600081519050919050565b600082825260208201905092915050565b60006142348261420d565b61423e8185614218565b935061424e818560208601612c06565b61425781612c30565b840191505092915050565b60006080820190506142776000830187612d31565b6142846020830186612d31565b6142916040830185612f3f565b81810360608301526142a38184614229565b905095945050505050565b6000815190506142bd81612b5b565b92915050565b6000602082840312156142d9576142d8612b25565b5b60006142e7848285016142ae565b91505092915050565b7f4e487b7100000000000000000000000000000000000000000000000000000000600052601260045260246000fdfea2646970667358221220a573a60090d7d07251355ff5159a536e6d0b082b454d755e39968601c84b540264736f6c63430008130033",
  "deployedBytecode": "0x60806040526004361061012a5760003560e01c80636352211e116100ab578063ae677aa31161006f578063ae677aa3146103f9578063b88d4fde14610415578063be9af5361461043e578063c87b56dd1461045a578063e219fc7514610497578063e985e9c5146104b35761012a565b80636352211e146102fb57806370a082311461033857806372b3b6201461037557806395d89b41146103a5578063a22cb465146103d05761012a565b806312e85585116100f257806312e8558514610228578063202e37401461025357806323b872dd1461027e57806342842e0e146102a757806345f8fa80146102d05761012a565b806301ffc9a71461012f57806306fdde031461016c578063081812fc14610197578063095ea7b3146101d45780630f08efe0146101fd575b600080fd5b34801561013b57600080fd5b5061015660048036038101906101519190612a06565b6104f0565b6040516101639190612a4e565b60405180910390f35b34801561017857600080fd5b506101816105d2565b60405161018e9190612af9565b60405180910390f35b3480156101a357600080fd5b506101be60048036038101906101b99190612b51565b610664565b6040516101cb9190612bbf565b60405180910390f35b3480156101e057600080fd5b506101fb60048036038101906101f69190612c06565b6106aa565b005b34801561020957600080fd5b506102126107c1565b60405161021f9190612d9c565b60405180910390f35b34801561023457600080fd5b5061023d610a29565b60405161024a9190612dcd565b60405180910390f35b34801561025f57600080fd5b50610268610a33565b6040516102759190612d9c565b60405180910390f35b34801561028a57600080fd5b506102a560048036038101906102a09190612de8565b610d1f565b005b3480156102b357600080fd5b506102ce60048036038101906102c99190612de8565b610d7f565b005b3480156102dc57600080fd5b506102e5610d9f565b6040516102f29190612d9c565b60405180910390f35b34801561030757600080fd5b50610322600480360381019061031d9190612b51565b61108b565b60405161032f9190612bbf565b60405180910390f35b34801561034457600080fd5b5061035f600480360381019061035a9190612e3b565b61113c565b60405161036c9190612dcd565b60405180910390f35b61038f600480360381019061038a9190612f9d565b6111f3565b60405161039c9190612dcd565b60405180910390f35b3480156103b157600080fd5b506103ba611235565b6040516103c79190612af9565b60405180910390f35b3480156103dc57600080fd5b506103f760048036038101906103f29190613025565b6112c7565b005b610413600480360381019061040e9190612b51565b6112dd565b005b34801561042157600080fd5b5061043c60048036038101906104379190613106565b611407565b005b61045860048036038101906104539190612b51565b611469565b005b34801561046657600080fd5b50610481600480360381019061047c9190612b51565b6116a1565b60405161048e9190612af9565b60405180910390f35b6104b160048036038101906104ac9190613189565b6117b3565b005b3480156104bf57600080fd5b506104da60048036038101906104d591906131c9565b6119a8565b6040516104e79190612a4e565b60405180910390f35b60007f80ac58cd000000000000000000000000000000000000000000000000000000007bffffffffffffffffffffffffffffffffffffffffffffffffffffffff1916827bffffffffffffffffffffffffffffffffffffffffffffffffffffffff191614806105bb57507f5b5e139f000000000000000000000000000000000000000000000000000000007bffffffffffffffffffffffffffffffffffffffffffffffffffffffff1916827bffffffffffffffffffffffffffffffffffffffffffffffffffffffff1916145b806105cb57506105ca82611a3c565b5b9050919050565b6060600080546105e190613238565b80601f016020809104026020016040519081016040528092919081815260200182805461060d90613238565b801561065a5780601f1061062f5761010080835404028352916020019161065a565b820191906000526020600020905b81548152906001019060200180831161063d57829003601f168201915b5050505050905090565b600061066f82611aa6565b6004600083815260200190815260200160002060009054906101000a900473ffffffffffffffffffffffffffffffffffffffff169050919050565b60006106b58261108b565b90508073ffffffffffffffffffffffffffffffffffffffff168373ffffffffffffffffffffffffffffffffffffffff1603610725576040517f08c379a000000000000000000000000000000000000000000000000000000000815260040161071c906132db565b60405180910390fd5b8073ffffffffffffffffffffffffffffffffffffffff16610744611af1565b73ffffffffffffffffffffffffffffffffffffffff16148061077357506107728161076d611af1565b6119a8565b5b6107b2576040517f08c379a00000000000000000000000000000000000000000000000000000000081526004016107a99061336d565b60405180910390fd5b6107bc8383611af9565b505050565b606060006107cf6007611bb2565b905060006107dd6008611bb2565b6107e76007611bb2565b6107f191906133bc565b90506000808267ffffffffffffffff8111156108105761080f612e72565b5b60405190808252806020026020018201604052801561084957816020015b61083661293d565b81526020019060019003908161082e5790505b50905060005b84811015610a1e573073ffffffffffffffffffffffffffffffffffffffff16600b600060018461087f91906133f0565b815260200190815260200160002060020160009054906101000a900473ffffffffffffffffffffffffffffffffffffffff1673ffffffffffffffffffffffffffffffffffffffff1603610a0b5760006001826108db91906133f0565b90506000600b60008381526020019081526020016000209050806040518060a0016040529081600082015481526020016001820160009054906101000a900473ffffffffffffffffffffffffffffffffffffffff1673ffffffffffffffffffffffffffffffffffffffff1673ffffffffffffffffffffffffffffffffffffffff1681526020016002820160009054906101000a900473ffffffffffffffffffffffffffffffffffffffff1673ffffffffffffffffffffffffffffffffffffffff1673ffffffffffffffffffffffffffffffffffffffff168152602001600382015481526020016004820160009054906101000a900460ff1615151515815250508486815181106109ee576109ed613424565b5b6020026020010181905250600185610a0691906133f0565b945050505b8080610a1690613453565b91505061084f565b508094505050505090565b6000600954905090565b60606000610a416007611bb2565b905060008060005b83811015610ae9573373ffffffffffffffffffffffffffffffffffffffff16600b6000600184610a7991906133f0565b815260200190815260200160002060020160009054906101000a900473ffffffffffffffffffffffffffffffffffffffff1673ffffffffffffffffffffffffffffffffffffffff1603610ad657600183610ad391906133f0565b92505b8080610ae190613453565b915050610a49565b5060008267ffffffffffffffff811115610b0657610b05612e72565b5b604051908082528060200260200182016040528015610b3f57816020015b610b2c61293d565b815260200190600190039081610b245790505b50905060005b84811015610d14573373ffffffffffffffffffffffffffffffffffffffff16600b6000600184610b7591906133f0565b815260200190815260200160002060020160009054906101000a900473ffffffffffffffffffffffffffffffffffffffff1673ffffffffffffffffffffffffffffffffffffffff1603610d01576000600182610bd191906133f0565b90506000600b60008381526020019081526020016000209050806040518060a0016040529081600082015481526020016001820160009054906101000a900473ffffffffffffffffffffffffffffffffffffffff1673ffffffffffffffffffffffffffffffffffffffff1673ffffffffffffffffffffffffffffffffffffffff1681526020016002820160009054906101000a900473ffffffffffffffffffffffffffffffffffffffff1673ffffffffffffffffffffffffffffffffffffffff1673ffffffffffffffffffffffffffffffffffffffff168152602001600382015481526020016004820160009054906101000a900460ff161515151581525050848681518110610ce457610ce3613424565b5b6020026020010181905250600185610cfc91906133f0565b945050505b8080610d0c90613453565b915050610b45565b508094505050505090565b610d30610d2a611af1565b82611bc0565b610d6f576040517f08c379a0000000000000000000000000000000000000000000000000000000008152600401610d669061350d565b60405180910390fd5b610d7a838383611c55565b505050565b610d9a83838360405180602001604052806000815250611407565b505050565b60606000610dad6007611bb2565b905060008060005b83811015610e55573373ffffffffffffffffffffffffffffffffffffffff16600b6000600184610de591906133f0565b815260200190815260200160002060010160009054906101000a900473ffffffffffffffffffffffffffffffffffffffff1673ffffffffffffffffffffffffffffffffffffffff1603610e4257600183610e3f91906133f0565b92505b8080610e4d90613453565b915050610db5565b5060008267ffffffffffffffff811115610e7257610e71612e72565b5b604051908082528060200260200182016040528015610eab57816020015b610e9861293d565b815260200190600190039081610e905790505b50905060005b84811015611080573373ffffffffffffffffffffffffffffffffffffffff16600b6000600184610ee191906133f0565b815260200190815260200160002060010160009054906101000a900473ffffffffffffffffffffffffffffffffffffffff1673ffffffffffffffffffffffffffffffffffffffff160361106d576000600182610f3d91906133f0565b90506000600b60008381526020019081526020016000209050806040518060a0016040529081600082015481526020016001820160009054906101000a900473ffffffffffffffffffffffffffffffffffffffff1673ffffffffffffffffffffffffffffffffffffffff1673ffffffffffffffffffffffffffffffffffffffff1681526020016002820160009054906101000a900473ffffffffffffffffffffffffffffffffffffffff1673ffffffffffffffffffffffffffffffffffffffff1673ffffffffffffffffffffffffffffffffffffffff168152602001600382015481526020016004820160009054906101000a900460ff1615151515815250508486815181106110505761104f613424565b5b602002602001018190525060018561106891906133f0565b945050505b808061107890613453565b915050610eb1565b508094505050505090565b6000806002600084815260200190815260200160002060009054906101000a900473ffffffffffffffffffffffffffffffffffffffff169050600073ffffffffffffffffffffffffffffffffffffffff168173ffffffffffffffffffffffffffffffffffffffff1603611133576040517f08c379a000000000000000000000000000000000000000000000000000000000815260040161112a90613579565b60405180910390fd5b80915050919050565b60008073ffffffffffffffffffffffffffffffffffffffff168273ffffffffffffffffffffffffffffffffffffffff16036111ac576040517f08c379a00000000000000000000000000000000000000000000000000000000081526004016111a39061360b565b60405180910390fd5b600360008373ffffffffffffffffffffffffffffffffffffffff1673ffffffffffffffffffffffffffffffffffffffff168152602001908152602001600020549050919050565b60006111ff6007611ebb565b600061120b6007611bb2565b90506112173382611ed1565b61122181856120aa565b61122b8184612117565b8091505092915050565b60606001805461124490613238565b80601f016020809104026020016040519081016040528092919081815260200182805461127090613238565b80156112bd5780601f10611292576101008083540402835291602001916112bd565b820191906000526020600020905b8154815290600101906020018083116112a057829003601f168201915b5050505050905090565b6112d96112d2611af1565b838361231a565b5050565b600a60009054906101000a900473ffffffffffffffffffffffffffffffffffffffff1673ffffffffffffffffffffffffffffffffffffffff163373ffffffffffffffffffffffffffffffffffffffff161461136d576040517f08c379a00000000000000000000000000000000000000000000000000000000081526004016113649061369d565b60405180910390fd5b3373ffffffffffffffffffffffffffffffffffffffff16600a60009054906101000a900473ffffffffffffffffffffffffffffffffffffffff1673ffffffffffffffffffffffffffffffffffffffff16146113fd576040517f08c379a00000000000000000000000000000000000000000000000000000000081526004016113f49061372f565b60405180910390fd5b8060098190555050565b611418611412611af1565b83611bc0565b611457576040517f08c379a000000000000000000000000000000000000000000000000000000000815260040161144e9061350d565b60405180910390fd5b61146384848484612486565b50505050565b6000600b60008381526020019081526020016000206003015490508034146114c6576040517f08c379a00000000000000000000000000000000000000000000000000000000081526004016114bd906137c1565b60405180910390fd5b33600b600084815260200190815260200160002060020160006101000a81548173ffffffffffffffffffffffffffffffffffffffff021916908373ffffffffffffffffffffffffffffffffffffffff1602179055506001600b600084815260200190815260200160002060040160006101000a81548160ff0219169083151502179055506000600b600084815260200190815260200160002060010160006101000a81548173ffffffffffffffffffffffffffffffffffffffff021916908373ffffffffffffffffffffffffffffffffffffffff1602179055506115aa6008611ebb565b6115b5303384611c55565b600a60009054906101000a900473ffffffffffffffffffffffffffffffffffffffff1673ffffffffffffffffffffffffffffffffffffffff166108fc6009549081150290604051600060405180830381858888f1935050505015801561161f573d6000803e3d6000fd5b50600b600083815260200190815260200160002060010160009054906101000a900473ffffffffffffffffffffffffffffffffffffffff1673ffffffffffffffffffffffffffffffffffffffff166108fc349081150290604051600060405180830381858888f1935050505015801561169c573d6000803e3d6000fd5b505050565b60606116ac82611aa6565b60006006600084815260200190815260200160002080546116cc90613238565b80601f01602080910402602001604051908101604052809291908181526020018280546116f890613238565b80156117455780601f1061171a57610100808354040283529160200191611745565b820191906000526020600020905b81548152906001019060200180831161172857829003601f168201915b5050505050905060006117566124e2565b9050600081510361176b5781925050506117ae565b6000825111156117a057808260405160200161178892919061381d565b604051602081830303815290604052925050506117ae565b6117a9846124f9565b925050505b919050565b3373ffffffffffffffffffffffffffffffffffffffff16600b600084815260200190815260200160002060020160009054906101000a900473ffffffffffffffffffffffffffffffffffffffff1673ffffffffffffffffffffffffffffffffffffffff1614611857576040517f08c379a000000000000000000000000000000000000000000000000000000000815260040161184e906138b3565b60405180910390fd5b600954341461189b576040517f08c379a000000000000000000000000000000000000000000000000000000000815260040161189290613945565b60405180910390fd5b6000600b600084815260200190815260200160002060040160006101000a81548160ff02191690831515021790555080600b60008481526020019081526020016000206003018190555033600b600084815260200190815260200160002060010160006101000a81548173ffffffffffffffffffffffffffffffffffffffff021916908373ffffffffffffffffffffffffffffffffffffffff16021790555030600b600084815260200190815260200160002060020160006101000a81548173ffffffffffffffffffffffffffffffffffffffff021916908373ffffffffffffffffffffffffffffffffffffffff1602179055506119996008612561565b6119a4333084611c55565b5050565b6000600560008473ffffffffffffffffffffffffffffffffffffffff1673ffffffffffffffffffffffffffffffffffffffff16815260200190815260200160002060008373ffffffffffffffffffffffffffffffffffffffff1673ffffffffffffffffffffffffffffffffffffffff16815260200190815260200160002060009054906101000a900460ff16905092915050565b60007f01ffc9a7000000000000000000000000000000000000000000000000000000007bffffffffffffffffffffffffffffffffffffffffffffffffffffffff1916827bffffffffffffffffffffffffffffffffffffffffffffffffffffffff1916149050919050565b611aaf816125bd565b611aee576040517f08c379a0000000000000000000000000000000000000000000000000000000008152600401611ae590613579565b60405180910390fd5b50565b600033905090565b816004600083815260200190815260200160002060006101000a81548173ffffffffffffffffffffffffffffffffffffffff021916908373ffffffffffffffffffffffffffffffffffffffff160217905550808273ffffffffffffffffffffffffffffffffffffffff16611b6c8361108b565b73ffffffffffffffffffffffffffffffffffffffff167f8c5be1e5ebec7d5bd14f71427d1e84f3dd0314c0f7b2291e5b200ac8c7c3b92560405160405180910390a45050565b600081600001549050919050565b600080611bcc8361108b565b90508073ffffffffffffffffffffffffffffffffffffffff168473ffffffffffffffffffffffffffffffffffffffff161480611c0e5750611c0d81856119a8565b5b80611c4c57508373ffffffffffffffffffffffffffffffffffffffff16611c3484610664565b73ffffffffffffffffffffffffffffffffffffffff16145b91505092915050565b8273ffffffffffffffffffffffffffffffffffffffff16611c758261108b565b73ffffffffffffffffffffffffffffffffffffffff1614611ccb576040517f08c379a0000000000000000000000000000000000000000000000000000000008152600401611cc2906139d7565b60405180910390fd5b600073ffffffffffffffffffffffffffffffffffffffff168273ffffffffffffffffffffffffffffffffffffffff1603611d3a576040517f08c379a0000000000000000000000000000000000000000000000000000000008152600401611d3190613a69565b60405180910390fd5b611d45838383612629565b611d50600082611af9565b6001600360008573ffffffffffffffffffffffffffffffffffffffff1673ffffffffffffffffffffffffffffffffffffffff1681526020019081526020016000206000828254611da091906133bc565b925050819055506001600360008473ffffffffffffffffffffffffffffffffffffffff1673ffffffffffffffffffffffffffffffffffffffff1681526020019081526020016000206000828254611df791906133f0565b92505081905550816002600083815260200190815260200160002060006101000a81548173ffffffffffffffffffffffffffffffffffffffff021916908373ffffffffffffffffffffffffffffffffffffffff160217905550808273ffffffffffffffffffffffffffffffffffffffff168473ffffffffffffffffffffffffffffffffffffffff167fddf252ad1be2c89b69c2b068fc378daa952ba7f163c4a11628f55a4df523b3ef60405160405180910390a4611eb683838361262e565b505050565b6001816000016000828254019250508190555050565b600073ffffffffffffffffffffffffffffffffffffffff168273ffffffffffffffffffffffffffffffffffffffff1603611f40576040517f08c379a0000000000000000000000000000000000000000000000000000000008152600401611f3790613ad5565b60405180910390fd5b611f49816125bd565b15611f89576040517f08c379a0000000000000000000000000000000000000000000000000000000008152600401611f8090613b41565b60405180910390fd5b611f9560008383612629565b6001600360008473ffffffffffffffffffffffffffffffffffffffff1673ffffffffffffffffffffffffffffffffffffffff1681526020019081526020016000206000828254611fe591906133f0565b92505081905550816002600083815260200190815260200160002060006101000a81548173ffffffffffffffffffffffffffffffffffffffff021916908373ffffffffffffffffffffffffffffffffffffffff160217905550808273ffffffffffffffffffffffffffffffffffffffff16600073ffffffffffffffffffffffffffffffffffffffff167fddf252ad1be2c89b69c2b068fc378daa952ba7f163c4a11628f55a4df523b3ef60405160405180910390a46120a66000838361262e565b5050565b6120b3826125bd565b6120f2576040517f08c379a00000000000000000000000000000000000000000000000000000000081526004016120e990613bd3565b60405180910390fd5b806006600084815260200190815260200160002090816121129190613d9f565b505050565b6000811161215a576040517f08c379a000000000000000000000000000000000000000000000000000000000815260040161215190613ebd565b60405180910390fd5b600954341461219e576040517f08c379a000000000000000000000000000000000000000000000000000000000815260040161219590613945565b60405180910390fd5b6040518060a001604052808381526020013373ffffffffffffffffffffffffffffffffffffffff1681526020013073ffffffffffffffffffffffffffffffffffffffff16815260200182815260200160001515815250600b60008481526020019081526020016000206000820151816000015560208201518160010160006101000a81548173ffffffffffffffffffffffffffffffffffffffff021916908373ffffffffffffffffffffffffffffffffffffffff16021790555060408201518160020160006101000a81548173ffffffffffffffffffffffffffffffffffffffff021916908373ffffffffffffffffffffffffffffffffffffffff1602179055506060820151816003015560808201518160040160006101000a81548160ff0219169083151502179055509050506122d7333084611c55565b817fb640004f1d14576d0c209e240cad0410e0d8c0c33a09375861fbadae2588a98d333084600060405161230e9493929190613edd565b60405180910390a25050565b8173ffffffffffffffffffffffffffffffffffffffff168373ffffffffffffffffffffffffffffffffffffffff1603612388576040517f08c379a000000000000000000000000000000000000000000000000000000000815260040161237f90613f6e565b60405180910390fd5b80600560008573ffffffffffffffffffffffffffffffffffffffff1673ffffffffffffffffffffffffffffffffffffffff16815260200190815260200160002060008473ffffffffffffffffffffffffffffffffffffffff1673ffffffffffffffffffffffffffffffffffffffff16815260200190815260200160002060006101000a81548160ff0219169083151502179055508173ffffffffffffffffffffffffffffffffffffffff168373ffffffffffffffffffffffffffffffffffffffff167f17307eab39ab6107e8899845ad3d59bd9653f200f220920489ca2b5937696c31836040516124799190612a4e565b60405180910390a3505050565b612491848484611c55565b61249d84848484612633565b6124dc576040517f08c379a00000000000000000000000000000000000000000000000000000000081526004016124d390614000565b60405180910390fd5b50505050565b606060405180602001604052806000815250905090565b606061250482611aa6565b600061250e6124e2565b9050600081511161252e5760405180602001604052806000815250612559565b80612538846127ba565b60405160200161254992919061381d565b6040516020818303038152906040525b915050919050565b600081600001549050600081116125ad576040517f08c379a00000000000000000000000000000000000000000000000000000000081526004016125a49061406c565b60405180910390fd5b6001810382600001819055505050565b60008073ffffffffffffffffffffffffffffffffffffffff166002600084815260200190815260200160002060009054906101000a900473ffffffffffffffffffffffffffffffffffffffff1673ffffffffffffffffffffffffffffffffffffffff1614159050919050565b505050565b505050565b60006126548473ffffffffffffffffffffffffffffffffffffffff1661291a565b156127ad578373ffffffffffffffffffffffffffffffffffffffff1663150b7a0261267d611af1565b8786866040518563ffffffff1660e01b815260040161269f94939291906140e1565b6020604051808303816000875af19250505080156126db57506040513d601f19601f820116820180604052508101906126d89190614142565b60015b61275d573d806000811461270b576040519150601f19603f3d011682016040523d82523d6000602084013e612710565b606091505b506000815103612755576040517f08c379a000000000000000000000000000000000000000000000000000000000815260040161274c90614000565b60405180910390fd5b805181602001fd5b63150b7a0260e01b7bffffffffffffffffffffffffffffffffffffffffffffffffffffffff1916817bffffffffffffffffffffffffffffffffffffffffffffffffffffffff1916149150506127b2565b600190505b949350505050565b606060008203612801576040518060400160405280600181526020017f30000000000000000000000000000000000000000000000000000000000000008152509050612915565b600082905060005b6000821461283357808061281c90613453565b915050600a8261282c919061419e565b9150612809565b60008167ffffffffffffffff81111561284f5761284e612e72565b5b6040519080825280601f01601f1916602001820160405280156128815781602001600182028036833780820191505090505b5090505b6000851461290e5760018261289a91906133bc565b9150600a856128a991906141cf565b60306128b591906133f0565b60f81b8183815181106128cb576128ca613424565b5b60200101907effffffffffffffffffffffffffffffffffffffffffffffffffffffffffffff1916908160001a905350600a85612907919061419e565b9450612885565b8093505050505b919050565b6000808273ffffffffffffffffffffffffffffffffffffffff163b119050919050565b6040518060a0016040528060008152602001600073ffffffffffffffffffffffffffffffffffffffff168152602001600073ffffffffffffffffffffffffffffffffffffffff168152602001600081526020016000151581525090565b6000604051905090565b600080fd5b600080fd5b60007fffffffff0000000000000000000000000000000000000000000000000000000082169050919050565b6129e3816129ae565b81146129ee57600080fd5b50565b600081359050612a00816129da565b92915050565b600060208284031215612a1c57612a1b6129a4565b5b6000612a2a848285016129f1565b91505092915050565b60008115159050919050565b612a4881612a33565b82525050565b6000602082019050612a636000830184612a3f565b92915050565b600081519050919050565b600082825260208201905092915050565b60005b83811015612aa3578082015181840152602081019050612a88565b60008484015250505050565b6000601f19601f8301169050919050565b6000612acb82612a69565b612ad58185612a74565b9350612ae5818560208601612a85565b612aee81612aaf565b840191505092915050565b60006020820190508181036000830152612b138184612ac0565b905092915050565b6000819050919050565b612b2e81612b1b565b8114612b3957600080fd5b50565b600081359050612b4b81612b25565b92915050565b600060208284031215612b6757612b666129a4565b5b6000612b7584828501612b3c565b91505092915050565b600073ffffffffffffffffffffffffffffffffffffffff82169050919050565b6000612ba982612b7e565b9050919050565b612bb981612b9e565b82525050565b6000602082019050612bd46000830184612bb0565b92915050565b612be381612b9e565b8114612bee57600080fd5b50565b600081359050612c0081612bda565b92915050565b60008060408385031215612c1d57612c1c6129a4565b5b6000612c2b85828601612bf1565b9250506020612c3c85828601612b3c565b9150509250929050565b600081519050919050565b600082825260208201905092915050565b6000819050602082019050919050565b612c7b81612b1b565b82525050565b6000612c8c82612b7e565b9050919050565b612c9c81612c81565b82525050565b612cab81612a33565b82525050565b60a082016000820151612cc76000850182612c72565b506020820151612cda6020850182612c93565b506040820151612ced6040850182612c93565b506060820151612d006060850182612c72565b506080820151612d136080850182612ca2565b50505050565b6000612d258383612cb1565b60a08301905092915050565b6000602082019050919050565b6000612d4982612c46565b612d538185612c51565b9350612d5e83612c62565b8060005b83811015612d8f578151612d768882612d19565b9750612d8183612d31565b925050600181019050612d62565b5085935050505092915050565b60006020820190508181036000830152612db68184612d3e565b905092915050565b612dc781612b1b565b82525050565b6000602082019050612de26000830184612dbe565b92915050565b600080600060608486031215612e0157612e006129a4565b5b6000612e0f86828701612bf1565b9350506020612e2086828701612bf1565b9250506040612e3186828701612b3c565b9150509250925092565b600060208284031215612e5157612e506129a4565b5b6000612e5f84828501612bf1565b91505092915050565b600080fd5b600080fd5b7f4e487b7100000000000000000000000000000000000000000000000000000000600052604160045260246000fd5b612eaa82612aaf565b810181811067ffffffffffffffff82111715612ec957612ec8612e72565b5b80604052505050565b6000612edc61299a565b9050612ee88282612ea1565b919050565b600067ffffffffffffffff821115612f0857612f07612e72565b5b612f1182612aaf565b9050602081019050919050565b82818337600083830152505050565b6000612f40612f3b84612eed565b612ed2565b905082815260208101848484011115612f5c57612f5b612e6d565b5b612f67848285612f1e565b509392505050565b600082601f830112612f8457612f83612e68565b5b8135612f94848260208601612f2d565b91505092915050565b60008060408385031215612fb457612fb36129a4565b5b600083013567ffffffffffffffff811115612fd257612fd16129a9565b5b612fde85828601612f6f565b9250506020612fef85828601612b3c565b9150509250929050565b61300281612a33565b811461300d57600080fd5b50565b60008135905061301f81612ff9565b92915050565b6000806040838503121561303c5761303b6129a4565b5b600061304a85828601612bf1565b925050602061305b85828601613010565b9150509250929050565b600067ffffffffffffffff8211156130805761307f612e72565b5b61308982612aaf565b9050602081019050919050565b60006130a96130a484613065565b612ed2565b9050828152602081018484840111156130c5576130c4612e6d565b5b6130d0848285612f1e565b509392505050565b600082601f8301126130ed576130ec612e68565b5b81356130fd848260208601613096565b91505092915050565b600080600080608085870312156131205761311f6129a4565b5b600061312e87828801612bf1565b945050602061313f87828801612bf1565b935050604061315087828801612b3c565b925050606085013567ffffffffffffffff811115613171576131706129a9565b5b61317d878288016130d8565b91505092959194509250565b600080604083850312156131a05761319f6129a4565b5b60006131ae85828601612b3c565b92505060206131bf85828601612b3c565b9150509250929050565b600080604083850312156131e0576131df6129a4565b5b60006131ee85828601612bf1565b92505060206131ff85828601612bf1565b9150509250929050565b7f4e487b7100000000000000000000000000000000000000000000000000000000600052602260045260246000fd5b6000600282049050600182168061325057607f821691505b60208210810361326357613262613209565b5b50919050565b7f4552433732313a20617070726f76616c20746f2063757272656e74206f776e6560008201527f7200000000000000000000000000000000000000000000000000000000000000602082015250565b60006132c5602183612a74565b91506132d082613269565b604082019050919050565b600060208201905081810360008301526132f4816132b8565b9050919050565b7f4552433732313a20617070726f76652063616c6c6572206973206e6f7420746f60008201527f6b656e206f776e6572206e6f7220617070726f76656420666f7220616c6c0000602082015250565b6000613357603e83612a74565b9150613362826132fb565b604082019050919050565b600060208201905081810360008301526133868161334a565b9050919050565b7f4e487b7100000000000000000000000000000000000000000000000000000000600052601160045260246000fd5b60006133c782612b1b565b91506133d283612b1b565b92508282039050818111156133ea576133e961338d565b5b92915050565b60006133fb82612b1b565b915061340683612b1b565b925082820190508082111561341e5761341d61338d565b5b92915050565b7f4e487b7100000000000000000000000000000000000000000000000000000000600052603260045260246000fd5b600061345e82612b1b565b91507fffffffffffffffffffffffffffffffffffffffffffffffffffffffffffffffff82036134905761348f61338d565b5b600182019050919050565b7f4552433732313a2063616c6c6572206973206e6f7420746f6b656e206f776e6560008201527f72206e6f7220617070726f766564000000000000000000000000000000000000602082015250565b60006134f7602e83612a74565b91506135028261349b565b604082019050919050565b60006020820190508181036000830152613526816134ea565b9050919050565b7f4552433732313a20696e76616c696420746f6b656e2049440000000000000000600082015250565b6000613563601883612a74565b915061356e8261352d565b602082019050919050565b6000602082019050818103600083015261359281613556565b9050919050565b7f4552433732313a2061646472657373207a65726f206973206e6f74206120766160008201527f6c6964206f776e65720000000000000000000000000000000000000000000000602082015250565b60006135f5602983612a74565b915061360082613599565b604082019050919050565b60006020820190508181036000830152613624816135e8565b9050919050565b7f6f6e6c79206f776e6572206f6620746865206d61726b6574706c61636520636160008201527f6e206368616e676520746865206c697374696e67207072696365000000000000602082015250565b6000613687603a83612a74565b91506136928261362b565b604082019050919050565b600060208201905081810360008301526136b68161367a565b9050919050565b7f4f6e6c79206d61726b6574706c616365206f776e65722063616e20757064617460008201527f65206c697374696e672070726963652e00000000000000000000000000000000602082015250565b6000613719603083612a74565b9150613724826136bd565b604082019050919050565b600060208201905081810360008301526137488161370c565b9050919050565b7f506c65617365207375626d6974207468652061736b696e67207072696365206960008201527f6e206f7264657220746f20636f6d706c65746520746865207075726368617365602082015250565b60006137ab604083612a74565b91506137b68261374f565b604082019050919050565b600060208201905081810360008301526137da8161379e565b9050919050565b600081905092915050565b60006137f782612a69565b61380181856137e1565b9350613811818560208601612a85565b80840191505092915050565b600061382982856137ec565b915061383582846137ec565b91508190509392505050565b7f4f6e6c79206974656d206f776e65722063616e20706572666f726d207468697360008201527f206f7065726174696f6e00000000000000000000000000000000000000000000602082015250565b600061389d602a83612a74565b91506138a882613841565b604082019050919050565b600060208201905081810360008301526138cc81613890565b9050919050565b7f5072696365206d75737420626520657175616c20746f206c697374696e67207060008201527f7269636500000000000000000000000000000000000000000000000000000000602082015250565b600061392f602483612a74565b915061393a826138d3565b604082019050919050565b6000602082019050818103600083015261395e81613922565b9050919050565b7f4552433732313a207472616e736665722066726f6d20696e636f72726563742060008201527f6f776e6572000000000000000000000000000000000000000000000000000000602082015250565b60006139c1602583612a74565b91506139cc82613965565b604082019050919050565b600060208201905081810360008301526139f0816139b4565b9050919050565b7f4552433732313a207472616e7366657220746f20746865207a65726f2061646460008201527f7265737300000000000000000000000000000000000000000000000000000000602082015250565b6000613a53602483612a74565b9150613a5e826139f7565b604082019050919050565b60006020820190508181036000830152613a8281613a46565b9050919050565b7f4552433732313a206d696e7420746f20746865207a65726f2061646472657373600082015250565b6000613abf602083612a74565b9150613aca82613a89565b602082019050919050565b60006020820190508181036000830152613aee81613ab2565b9050919050565b7f4552433732313a20746f6b656e20616c7265616479206d696e74656400000000600082015250565b6000613b2b601c83612a74565b9150613b3682613af5565b602082019050919050565b60006020820190508181036000830152613b5a81613b1e565b9050919050565b7f45524337323155524953746f726167653a2055524920736574206f66206e6f6e60008201527f6578697374656e7420746f6b656e000000000000000000000000000000000000602082015250565b6000613bbd602e83612a74565b9150613bc882613b61565b604082019050919050565b60006020820190508181036000830152613bec81613bb0565b9050919050565b60008190508160005260206000209050919050565b60006020601f8301049050919050565b600082821b905092915050565b600060088302613c557fffffffffffffffffffffffffffffffffffffffffffffffffffffffffffffffff82613c18565b613c5f8683613c18565b95508019841693508086168417925050509392505050565b6000819050919050565b6000613c9c613c97613c9284612b1b565b613c77565b612b1b565b9050919050565b6000819050919050565b613cb683613c81565b613cca613cc282613ca3565b848454613c25565b825550505050565b600090565b613cdf613cd2565b613cea818484613cad565b505050565b5b81811015613d0e57613d03600082613cd7565b600181019050613cf0565b5050565b601f821115613d5357613d2481613bf3565b613d2d84613c08565b81016020851015613d3c578190505b613d50613d4885613c08565b830182613cef565b50505b505050565b600082821c905092915050565b6000613d7660001984600802613d58565b1980831691505092915050565b6000613d8f8383613d65565b9150826002028217905092915050565b613da882612a69565b67ffffffffffffffff811115613dc157613dc0612e72565b5b613dcb8254613238565b613dd6828285613d12565b600060209050601f831160018114613e095760008415613df7578287015190505b613e018582613d83565b865550613e69565b601f198416613e1786613bf3565b60005b82811015613e3f57848901518255600182019150602085019450602081019050613e1a565b86831015613e5c5784890151613e58601f891682613d65565b8355505b6001600288020188555050505b505050505050565b7f5072696365206d757374206265206174206c6561737420312077656900000000600082015250565b6000613ea7601c83612a74565b9150613eb282613e71565b602082019050919050565b60006020820190508181036000830152613ed681613e9a565b9050919050565b6000608082019050613ef26000830187612bb0565b613eff6020830186612bb0565b613f0c6040830185612dbe565b613f196060830184612a3f565b95945050505050565b7f4552433732313a20617070726f766520746f2063616c6c657200000000000000600082015250565b6000613f58601983612a74565b9150613f6382613f22565b602082019050919050565b60006020820190508181036000830152613f8781613f4b565b9050919050565b7f4552433732313a207472616e7366657220746f206e6f6e20455243373231526560008201527f63656976657220696d706c656d656e7465720000000000000000000000000000602082015250565b6000613fea603283612a74565b9150613ff582613f8e565b604082019050919050565b6000602082019050818103600083015261401981613fdd565b9050919050565b7f436f756e7465723a2064656372656d656e74206f766572666c6f770000000000600082015250565b6000614056601b83612a74565b915061406182614020565b602082019050919050565b6000602082019050818103600083015261408581614049565b9050919050565b600081519050919050565b600082825260208201905092915050565b60006140b38261408c565b6140bd8185614097565b93506140cd818560208601612a85565b6140d681612aaf565b840191505092915050565b60006080820190506140f66000830187612bb0565b6141036020830186612bb0565b6141106040830185612dbe565b818103606083015261412281846140a8565b905095945050505050565b60008151905061413c816129da565b92915050565b600060208284031215614158576141576129a4565b5b60006141668482850161412d565b91505092915050565b7f4e487b7100000000000000000000000000000000000000000000000000000000600052601260045260246000fd5b60006141a982612b1b565b91506141b483612b1b565b9250826141c4576141c361416f565b5b828204905092915050565b60006141da82612b1b565b91506141e583612b1b565b9250826141f5576141f461416f565b5b82820690509291505056fea264697066735822122048d7b3536dcffcae64d8009346988cb3a926809eb6ed8922da22642be0247cac64736f6c63430008110033",
  "linkReferences": {},
  "deployedLinkReferences": {}
}